:020000040800F2
:1000000010330020990100088B350008A52900084D
:10001000893500080D0D0008FD3F000800000000B4
:1000200000000000000000000000000001010008C6
:100030008B0D00080000000045010008453800084D
:10004000B3010008B3010008B3010008B3010008C0
:10005000B3010008B3010008B3010008B3010008B0
:10006000B3010008B3010008B3010008110D000836
:10007000B3010008B30100081D0D0008290D000898
:10008000350D0008410D0008B3010008B301000858
:10009000B3010008B3010008B3010008B301000870
:1000A000B30100080D390008B3010008B3010008CE
:1000B000B3010008B3010008B3010008B301000850
:1000C000B3010008B3010008B3010008B301000840
:1000D000B3010008E93E0008F53E0008B30100083E
:1000E000B3010008B3010008B3010008DFF80CD029
:1000F00000F01AFA00480047354400081033002089
:10010000224B19680868B0E8F00F80F30988BFF344
:100110006F8F4FF0000080F311884EF00D0E704786
:100120000000000006480068006880F3088862B696
:1001300061B6BFF34F8FBFF36F8F00DF00BF00BF0B
:1001400008ED00E0EFF30980BFF36F8F0F4B1A68E3
:1001500020E9F00F106008B54FF0500080F31188CF
:10016000BFF34F8FBFF36F8F04F088FE4FF0000096
:1001700080F31188BDE8084019680868B0E8F00FFE
:1001800080F30988BFF36F8F704700BFD400002051
:10019000EFF3058070470000064880470648004797
:1001A000FEE7FEE7FEE7FEE7FEE7FEE7FEE7FEE727
:1001B000FEE7FEE7C5380008ED0000082DE9F04134
:1001C0000024061B254671F1000605DA01240027EC
:1001D000D0EB070067EB0101161E73F1000605DA8C
:1001E0000027D2EB0702012567EB030300F034F987
:1001F00086460E4617469C46AC4204D00025D0EBFE
:10020000050E65EB010624B10020D2EB000760EB80
:10021000030C704631463A466346BDE8F081202A19
:1002200004DB203A21FA02F00021704721FA02F3A0
:10023000D040C2F12002914008431946704740EA7D
:1002400001039B0703D009E008C9121F08C0042A54
:10025000FAD203E011F8013B00F8013B521EF9D23B
:100260007047F0B480EA0102D40F4200B2EB410FB4
:1002700002D20246084611464A0042D0C30DDDB202
:10028000C1F3C752AD1A202D35DAC1F3160141F47E
:10029000000204B15242C5F1200602FA06F12A41D9
:1002A0001044B3EBD05F23D0C4B1012DA0EBC350F9
:1002B00009DCF0BC4FF0004202EAC352DBB200F5A9
:1002C000000000F003B9400000F1807000EBC35063
:1002D000A0F1807040EAD170490009E0490841EA84
:1002E000C071A0EBC35000F50000400800EBC35004
:1002F000F0BC00F0E2B86142012202EB4101001BB8
:10030000F6E7F0BC704781F00041AAE780F00040BA
:10031000A7E780EA010210B502F00043400022D0B6
:100320004A001FD0010E01EB1261C0F35600C2F368
:10033000560240F4000042F40002A0FB0220000438
:100340007F39140400D0401C50EA124001D4400010
:10035000491EC2B20C0604EBD010401C4008802A93
:1003600002D003E0002010BD20F00100002900DAD7
:100370000020184310BD30B480EA010202F00045AD
:1003800030F0004221F0004013D090B1C30DD40DE5
:10039000C2F31601C0F31600E41A41F4000140F460
:1003A00000027D34914201D3641C00E04900002C1E
:1003B00002DA30BC002070474FF400000023914265
:1003C00001D3891A034340084FEA4101F7D151B1E3
:1003D000914202D14FF0004105E002D24FF00101FD
:1003E00001E06FF0010103EBC450284430BC00F081
:1003F00064B8420005D0C0F3C7525242914201DCBA
:100400000020704700EBC1507047C10F80EAE070D8
:100410000844CA079623002100F058B8962300220A
:10042000114600F053B800F0004220F00040C10D2A
:10043000C0F3160040F400007F2901DA0020704765
:10044000962903DCC1F19601C84001E09639884045
:10045000002AF4D0404270472DE9F05F05460020A5
:1004600092469B4688460646814640241BE0284625
:10047000414647462246FFF7D2FE53465A46C01A27
:10048000914110D311461846224600F05FF82D1A0C
:1004900067EB01084F4622460120002100F056F884
:1004A00017EB00094E41201EA4F10104DFDC484691
:1004B00031462A464346BDE8F09F0029A8BF704751
:1004C000401C490008BF20F00100704710B4B0FA8A
:1004D00080FC00FA0CF050EA010404BF10BC704725
:1004E00049B1CCF1200421FA04F411FA0CF118BF3F
:1004F000012121430843A3EB0C01CB1D4FEA00610E
:100500004FEA102042BF002010BC704700EBC350E0
:1005100010440029A4BF10BC7047401C490008BF0C
:1005200020F0010010BC7047064C074D06E0E06863
:1005300040F0010394E8070098471034AC42F6D32A
:10054000FFF7D8FDE452000804530008202A04DB1A
:10055000203A00FA02F1002070479140C2F12003D6
:1005600020FA03F3194390407047F0B4002802DCEE
:10057000F0BC00207047C0F3C751C0F3160040F430
:100580000000CA0701D14000491E3F2202EB61056D
:10059000002211464FF4000626FA01F31344D41842
:1005A000844201D8001B1A464000491C1729F3DD7C
:1005B0005100814202D24FF0FF3100E0002102EBF6
:1005C000C550F0BCFFF779BF70B50446006881687C
:1005D000C943C9071CD1816821F00101816000F085
:1005E000B7FF05460FE000BF00F0B2FF401B022836
:1005F00009D9A06A40F01000A062E06A40F0010052
:10060000E062012070BD20688068C043C007EBD065
:10061000002070BD2DE9F0477049012486B00A78AA
:100620004B78B2FBF3F003FB10256D485B1E9D4237
:1006300000D184708B78B2FBF3F503FB15255B1EAC
:100640009D4200D14470CB78B2FBF3F503FB152536
:100650005B1E9D4200D144720B79B2FBF3F503FBA4
:1006600015255B1E9D4200D1C4724B79B2FBF3F598
:1006700003FB15255B1E9D4200D10473521C0A70BA
:100680000178002461B104704FF4C87364224FF400
:1006900096710420009400F005FB06B0BDE8F087D9
:1006A000417851B144704F48009401948268D0E978
:1006B0000010002300F098FAEFE7817859B34A4D13
:1006C0008470D5F8A400FFF7AEFE0FFA80FAD5F8D3
:1006D000A000FFF7A8FE0FFA80F9D5F89C00FFF7FD
:1006E000A2FE0FFA80F8286AFFF79DFE07B2E869BC
:1006F000FFF799FE06B2A869FFF795FECDE901A4C0
:1007000000B2039443463A463146CDF80090049433
:1007100000F000FAC1E7417A69B144720023059400
:1007200002940394049400941A46194618460194BE
:1007300000F096F9B1E7C17A69B1C47208230722C3
:10074000062105208DE80F00042303220221012049
:1007500000F066F8A1E7017B41B1047306B04FF4E5
:10076000E471BDE8F0477B2000F04EB9C5781F4A20
:100770001F4B204985B13432C47092E83100DA6BE6
:1007800003AE029286E83100D3E90D02CDE9000202
:10079000343101200EC90FE0057985B1047192E86A
:1007A00031009A6803AE029286E83100D3E9000274
:1007B000CDE900020EC9022000F080F86DE7417912
:1007C0000029A7D044710023059402940394049453
:1007D00000941A46194603200194EDE77C0000209E
:1007E0001C0300202800002018010020B402002073
:1007F0004C020020E4010020064890F84620002A20
:1008000007D1A0F8441000F12401034A034803F083
:10081000C9BB70473005002029030020C406002012
:100820003FB42548AA211023017041700621817030
:100830009DF8011001719DF8001041719DF805109F
:1008400081719DF80410C1719DF8091001729DF825
:10085000081041729DF80D1081729DF80C10C17244
:100860009DF8191001739DF8181041739DF81D1023
:1008700081739DF81C10C1739DF8211001749DF8BF
:10088000201041749DF8251081749DF82410C174C6
:10089000C37000221421084B00201C5C401C224421
:1008A000C0B2D2B28842F8D35A5404B0024830BC25
:1008B000491CFFF7A1BF0000290300202DE9FF4FCD
:1008C00081B00A460FA94E4C91E8400FAA21217031
:1008D00061700F304B4FA070002539461046FFF76E
:1008E00018FDFFF7A0FDADF800009DF80100207194
:1008F0009DF80000607139460398FFF70AFDFFF785
:1009000092FDADF800009DF80100A0719DF8000077
:10091000E07139460498FFF7FCFCFFF784FDADF861
:1009200000009DF8010020729DF8000060723946B9
:100930000E98FFF7EEFCFFF776FDADF800009DF88E
:100940000100A0729DF80000E07239463046FFF7C2
:10095000E0FCFFF768FDADF800009DF80100207392
:100960009DF80000607339464046FFF7D2FCFFF760
:100970005AFDADF800009DF80100A0739DF800003D
:10098000E07339464846FFF7C4FCFFF74CFDADF86D
:1009900000009DF8010020749DF800006074394645
:1009A0005046FFF7B6FCFFF73EFDADF800009DF89E
:1009B0000100A0749DF80000E07439465846FFF726
:1009C000A8FCFFF730FDADF800009DF80100207590
:1009D0009DF80000607512201621E070002022466C
:1009E000135C401C2B44C0B2DDB28842F8D355548E
:1009F00005B00348BDE8F04F491CFFF7FDBE0000FD
:100A00002903002000007A4418B4144AAA240023C1
:100A10001470547005249470ADF800009DF8010026
:100A200010719DF800005071ADF800109DF80100A4
:100A300090719DF800000424D0710821D47000202A
:100A4000145C401C2344C0B2DBB28842F8D3535438
:100A500018BC0248491CFFF7CFBE00002903002044
:100A60003FB42B48AA2114230170417003218170E7
:100A70009DF8011001719DF8001041719DF805105D
:100A800081719DF80410C1719DF8091001729DF8E3
:100A9000081041729DF80D1081729DF80C10C17202
:100AA0009DF8191001739DF8181041739DF81D10E1
:100AB00081739DF81C10C1739DF8211001749DF87D
:100AC000201041749DF8251081749DF82410C17484
:100AD0009DF8291001759DF8281041759DF82D107D
:100AE00081759DF82C10C175C37000221821084B28
:100AF00000201C5C401C2244C0B2D2B28842F8D311
:100B00005A5404B0024830BC491CFFF775BE0000BF
:100B1000290300202DE9F80708ACAA2694E88017DD
:100B2000304C0025267066700226A670ADF80000D5
:100B30009DF8010020719DF800006071ADF8001073
:100B40009DF80100A0719DF80000E071ADF8002053
:100B50009DF8010020729DF800006072ADF8003031
:100B60009DF80100A0729DF80000E072ADF80070E1
:100B70009DF8010020739DF800006073ADF80080BF
:100B80009DF80100A0739DF80000E073ADF800909F
:100B90009DF8010020749DF800006074ADF800A07D
:100BA0009DF80100A0749DF80000E074ADF800C04D
:100BB0009DF8010020759DF8000060751220162137
:100BC000E07000202246135C401C2B44C0B2DDB212
:100BD0008842F8D35554BDE8F8070248491CFFF78E
:100BE0000BBE0000290300202DE9FC472B4CDDE95A
:100BF0000A688946AA210193217061700121284F5A
:100C0000A170924600253946FFF783FBFFF70BFCE6
:100C1000ADF800009DF8010020719DF800006071A2
:100C200039464846FFF775FBFFF7FDFBADF80000BE
:100C30009DF80100A0719DF80000E0713946504612
:100C4000FFF767FBFFF7EFFBADF800009DF8010031
:100C500020729DF8000060729DF80700A0729DF858
:100C60000600E0729DF8050020739DF80400607393
:100C7000A67384F80F800C201021E070002022461B
:100C8000135C401C2B44C0B2DDB28842F8D35554EB
:100C9000BDE8FC470148491CFFF7AEBD2903002011
:100CA0000000C8423FB4184AAA21002311705170B5
:100CB000937010719DF8050050719DF804009071BB
:100CC0009DF80900D0719DF8080010729DF80D1074
:100CD00051729DF80C1091729DF81910D1729DF807
:100CE0001810117309200D21D0700020145C401CD5
:100CF0002344C0B2DBB28842F8D3535404B0024854
:100D000030BC491CFFF778BD29030020FEE7000036
:100D1000014800F013BA00008C030020014800F0E5
:100D20000DBA00003C060020014800F007BA0000A0
:100D3000F8050020014800F001BA000080060020FC
:100D400010B5054A4FF00071044803F047F9BDE8BB
:100D50001040024800F0F2B976050020C4060020D9
:100D600030B590F840500124AC40C56B6C6004680D
:100D700063604368102B036803D099600068C26009
:100D800030BD9A600068C16030BD70472DE9F04108
:100D9000DFF834800D460746002400BF55F8246074
:100DA00057F824003146FFF7AEFA4146FFF7B1FA93
:100DB0003146FFF756FA45F82400641CE4B2032CD0
:100DC000ECD3BDE8F0810000CDCC4C3DF8B500245B
:100DD000009490F824202546012A12D0012280F8A0
:100DE00024204A681F23072A0DD20668776B521EFB
:100DF00002EB820293409F430B6893401F4377634B
:100E000019E00220F8BD06680D2A0AD2376BD21FFE
:100E100002EB820293409F430B6893401F4337636A
:100E200009E0F76A0D3A02EB820293409F430B6898
:100E300093401F43F7620A68072306680A2A0AD309
:100E4000F7680A3A02EB420293409F438B68934053
:100E50001F43F76008E0376902EB420293409F436B
:100E60008B6893401F4337610A68102A01D0112A0A
:100E700020D1124B02689A4217D193681B0219D4F1
:100E8000936843F4000393600968102912D10C4958
:100E90000C4A0968B1FBF2F101EB8101490000E065
:100EA000491E00910029FBD104E0816A41F0200134
:100EB0008162012480F824502046F8BD00240140BE
:100EC000AC00002040420F002DE9F0414FF0000738
:100ED00004003D467ED0A06A002628B9E66284F868
:100EE0002460204600F07EF82046FFF76DFBA16AE3
:100EF000C90600D420B1A06A40F01000A06269E0E9
:100F0000A16A21F4885141F00201A1626268E1699D
:100F1000E3680A4347EA43010A43A1684FF4807734
:100F2000B94209D0012907D05FF00001D4F814C0FC
:100F3000BCF1010F02D00AE03946F7E7F3B1A36A2A
:100F400043F02003A362E36A43F00103E3622368F2
:100F5000D3F804C02CF4694C4CEA010CC3F804C06B
:100F600021688B68DFF870C003EA0C0313438B60C1
:100F7000A168B9420BD0012909D00CE0DFF85CC0B0
:100F8000A3690CEB43330B4343F40061DFE7218A91
:100F90000D05A5F580152168CB6A23F470032B435A
:100FA000CB62216889680E4B1940914208D1E662F4
:100FB000A16A21F0020141F00101A162BDE8F081C6
:100FC000A06A20F0020040F01000A062E06A40F049
:100FD0000100E0620120F1E7FDF7E1FF00E0FFFF23
:100FE000FE0E1FFF30B505460068184985B08842DF
:100FF00029D11748816941F400718161806969468E
:1010000000F4007004900220009003200190114829
:1010100000F0BAF9114C1048802120600020606077
:10102000C4E9020189002161890061612021C4E9CC
:101030000610204600F02CF918B17D2108A002F01E
:10104000DEFF2C62656205B030BD00000024014067
:101050000010024000080140080002408C030020FC
:101060002E2E2F436F72652F5372632F6164632E90
:101070006300000001680A6822F00E020A6001683D
:101080000A6822F001020A6090F84020C36B012137
:1010900001FA02F25A6080F82110002180F8201035
:1010A0000846704710B590F821100024022903D09B
:1010B0000421816301243DE001680A6822F00E02E8
:1010C0000A6001680A6822F001020A601A4A01688F
:1010D000914201D1012121E0174A1432914201D1FC
:1010E00010211BE0144A2832914201D1891515E0E4
:1010F000114A3C32914201D189140FE00E4A50321C
:10110000914202D14FF4803108E00B4A643291429F
:1011100002D14FF4801101E04FF08071064A083A85
:101120005160012180F82110002180F82010416BCE
:1011300001B18847204610BD080002402DE9F05F4C
:10114000C16B0C6801680B68D0F840C0042202FA39
:101150000CF2494DDFF824A1494E4A4FDFF828B17F
:10116000DFF828E122422CD05A072AD50A689206D5
:1011700003D40A6822F004020A600168A94201D17E
:10118000042219E0514501D1402215E0B14202D1BB
:101190004FF4806210E0B94202D14FF480420BE07C
:1011A000594502D14FF4802206E0714502D14FF437
:1011B000800201E04FF080622F4908394A60C16A1D
:1011C0003BE04FF0020808FA0CF818EA040F4FF061
:1011D00000094FF0010235D05FEA837832D50B6801
:1011E0009B0605D40B6823F00A030B6080F82120CE
:1011F0000168A94201D1022219E0514501D1202202
:1012000015E0B14202D14FF4007210E0B94202D1B0
:101210004FF400520BE0594502D14FF4003206E082
:10122000714502D14FF4001201E04FF000721249F3
:1012300008394A6080F82090816A00291AD0BDE8F8
:10124000F05F0847082505FA0CF5254212D01B0768
:1012500010D50B6823F00E030B6090F84010C36BA1
:1012600002FA01F15960826380F8212080F8209011
:10127000016BE2E7BDE8F09F080002401C0002405D
:101280003000024044000240580002406C0002401E
:1012900030B548B308C8154914221944B1FBF2F11E
:1012A0008900C16312498163022141771A6843F6BC
:1012B000F0718A43D0E900142143D0E902452C4360
:1012C0002143046921434469214384692143114333
:1012D0001960002141628162C162016341630122A0
:1012E00042770177084630BD012030BDF8FFFDBFD1
:1012F0000000024070B5044690F820000025012847
:101300000CD0012084F8200094F821600020012EE8
:1013100006D084F820000225284670BD022070BD4A
:10132000022684F82160A0632068066826F0010682
:1013300006602046FFF714FDE06A00282068016877
:1013400002D041F00E0106E021F0040101602068A6
:10135000016841F00A0101602068016841F0010163
:101360000160D9E770B5044600F0F2F80546601C4C
:1013700002D004480078044400F0EAF8401BA04280
:10138000FAD370BDA00000202DE9F84FDFF890A13E
:1013900000220AF1040B144601274FF00F090BF14C
:1013A000040E00BF0B6807FA04F52B40AB4274D162
:1013B000DFF870C14E68A6EB0C0866452BD00DDC3B
:1013C000032E34D005DC36B3012E19D0022E2FD1D6
:1013D0001BE0112E16D0122E2AD119E0B8F5881F65
:1013E00019D006DCB8F5803F15D0B8F5801F1FD1A5
:1013F00011E0B8F5001F0ED0B8F5041F18D10AE0AF
:10140000CA6815E0CA68121D12E0CA6808320FE007
:10141000CA680C320CE08A682AB1012A4FF008022F
:1014200003D0456104E0042202E0056100E00022EF
:10143000FF2B01D8064601E000F104064FEA8405BF
:1014400001D9A5F12005D6F800C009FA05F82CEA63
:10145000080C02FA05F54CEA050CC6F800C04D6808
:10146000ED0057D5304DAE6946F00106AE61AD696D
:1014700024F0030605F0010500952C4D06EB050C44
:10148000DCF80850A6074FEA167809FA08F6B543C3
:10149000274EB04202D1002610E03BE0254EB0427C
:1014A00001D101260AE0244EB04201D1022605E016
:1014B000224EB04201D1032600E0042606FA08F6C7
:1014C0002E43CCF808604D68DAF80060ED0355460D
:1014D00001D51E4300E09E432E604D68DBF800609E
:1014E000AD035D4601D51E4300E09E432E604D686E
:1014F000DEF80060ED02754601D51E4300E09E4314
:101500002E604D68AD020E4D2E6801D51E4300E0E1
:101510009E432E60641C102CFFF444AFBDE8F88F8E
:1015200000040140000011100010024000000140C2
:1015300000080140000C014000100140001401406F
:101540000C0401400AB1016170470904FBE7000087
:101550000148806870470000A000002002488168B0
:101560000278114481607047A0000020074810B540
:10157000016841F010010160032000F0B7F800207D
:1015800000F006F800F03EF8002010BD00200240F8
:1015900000B5014687B00022192000F087F8192015
:1015A00000F078F81348816941F400618161806935
:1015B00005A900F400600690684600F0C9F900F043
:1015C000FDF90D490D4AB0FBF1F10D48491E0260CD
:1015D000416040F2E7320021C0E90321816000F060
:1015E00061FD10B1012007B000BD054800F0A1FD6C
:1015F000F9E700000010024040420F00002C0140BB
:1016000008070020214808B5816941F00101816186
:10161000816901F001010091C16941F08051C1610E
:10162000C06900F080500090032000F05FF80022B5
:1016300011466FF00B0000F039F8002211466FF0F0
:101640000A0000F033F8002211466FF0090000F0A4
:101650002DF800221146501F00F028F800221146F4
:10166000101F00F023F800220F21901E00F01EF83A
:1016700000220F21501E00F019F80548416821F0A2
:10168000E06141F00071416008BD000000100240BF
:101690000000014000F01F0201219140400980003C
:1016A00000F1E020C0F8001170470000F0B40E4BCC
:1016B0001B680C46C3F30223C3F10705042D00D9B0
:1016C0000425191D072901D2002300E0DB1E012695
:1016D00006FA05F1491E214099409E40761E1640AB
:1016E0003143F0BC01F052BF0CED00E0064900F0C0
:1016F000070208684FF6FF03184040EA0220034A39
:1017000010430860704700000CED00E00000FA058F
:101710002DE9F84305460078354CC00754D0E06900
:101720000026C00008D4E06940F08050E061E06924
:10173000012600F0805000902E480168C90512D49F
:101740000168804641F480710160FFF701FF0746A0
:1017500005E000BFFFF7FCFEC01B642823D8D8F8C3
:101760000000C005F6D5206A10F4407021D0A98889
:1017700001F4407181421CD0206A1F49012220F4EB
:1017800040700A6000220A602062C00711D0FFF793
:10179000DFFE074641F2883808E000BFFFF7D8FEB9
:1017A000C11B414502D90320BDE8F883206A8007A8
:1017B000F4D5206A696820F44070084320621EB1A5
:1017C000E06920F08050E0612878800705D56068E6
:1017D000A96820F44040084360602878C00605D519
:1017E0006068E96820F48000084360600020DBE75F
:1017F0000010024000700040400442422DE9F047D2
:10180000DFF83C8105460E46D8F8000000F00700DE
:10181000B0420CD2D8F8001021F007013143C8F8CB
:101820000010D8F8000000F00700B04263D128781B
:10183000444C800705D56068A96820F0F000084393
:1018400060602878C00745D06868012816D02168F4
:10185000022816D0890700294DDA616821F00301BA
:1018600001436160FFF774FE6968074641F2883002
:1018700001290FD00229814619D027E02168890368
:10188000E9E78901E7E700BFFFF762FEC11B4945B1
:1018900001D918E081466068C0F381000128F3D1C6
:1018A00018E000BFFFF754FEC11B49450BD8606824
:1018B000C0F381000228F5D10CE000BFFFF748FE1D
:1018C000C11B494502D90320BDE8F087606810F0CC
:1018D0000C0FF3D1D8F80010404601F00701B142D7
:1018E0000BD9016821F0070131430160006800F065
:1018F0000700B04201D00120E6E72878400705D56F
:101900006068E96820F4E0600843606028780007B8
:1019100006D56068296920F4605040EAC100606023
:1019200000F05CF86168084AC1F30311515CC840DB
:10193000064908600020FFF72BFE0020C4E70000E6
:10194000002002400010024084520008AC00002039
:101950000F2202600C4A536803F00303436053688C
:1019600003F0F0038360536803F4E063C3605268DC
:101970004FF4E06303EAD20202610448006800F019
:10198000070008607047000000100240002002407D
:101990000148006870470000AC0000200448054979
:1019A00000684968044AC1F30221515CC84070478D
:1019B000AC00002000100240945200080448054981
:1019C00000684968044AC1F3C221515CC8407047AD
:1019D000AC000020001002409452000812A185B013
:1019E0000FC98DE80F0014A0144A006804905168D4
:1019F000134801F00C03042B10D0082B0ED1C1F3B7
:101A00008343C9031DF803000AD5516804AAC1F332
:101A10004041515C0A4A5043B0FBF1F005B07047B9
:101A200008494843FAE700000203040506070809CD
:101A30000A0B0C0D0E0F10100102000000100240E6
:101A400000127A0000093D002DE9F84F04460078A5
:101A5000B94DC00748D06868C0F38100012807D09D
:101A60006868C0F38100022809D16868C00306D500
:101A70002868800338D5606800286FD034E060683B
:101A8000B0F5803F0BD010B1B0F5A02F11D0286871
:101A900020F480302860286820F4802002E0286844
:101AA00040F480302860606888B1FFF751FD064639
:101AB00009E0286840F480202860F0E7FFF748FD3F
:101AC000801B642875D828688003F7D50CE0FFF7E1
:101AD0003FFD064605E000BFFFF73AFD801B642886
:101AE000F0D828688003F7D42078944E80074FF010
:101AF00001094FF000083BD5686810F00C0F07D0C3
:101B00006868C0F38100022809D16868C00306D460
:101B10002868800714D5206901281FD110E02069AA
:101B2000B0B1C6F80090FFF713FD074605E000BF0F
:101B3000FFF70EFDC01B0228C4D828688007F7D520
:101B40002868616920F0F80040EAC10028600FE0D1
:101B5000C6F80080FFF7FCFC074606E0E9E000BF9E
:101B6000FFF7F6FCC01B022823D828688007F7D4AB
:101B7000207800072CD57248A169D9B1C0F800902F
:101B8000FFF7E6FC074604E0FFF7E2FCC01B022873
:101B90000FD8686A8007F7D56A484FF4FA51006891
:101BA000B0FBF1F0009000BF0098411E0091FAD206
:101BB0000EE080E0C0F80080FFF7CAFC074604E0B2
:101BC000FFF7C6FCC01B022875D8686A8007F7D4E7
:101BD0002078400760D5E8690027C00008D4E8698C
:101BE00040F08050E861E869012700F080500090E3
:101BF00055480168C90513D40168834641F48071D2
:101C00000160FFF7A5FC824606E000BFFFF7A0FCDD
:101C1000A0EB0A0064284ED8DBF80000C005F5D51B
:101C2000E06801280AD008B1052813D0286A20F0FE
:101C300001002862286A20F0040002E0286A40F0CF
:101C400001002862E06841F2883B98B1FFF780FC10
:101C500082460BE0286A40F004002862EEE700BFED
:101C6000FFF776FCA0EB0A0159455AD8286A80078D
:101C7000F6D50CE0FFF76CFC824605E0FFF768FC48
:101C8000A0EB0A0159454CD8286A8007F6D41FB149
:101C9000E86920F08050E861E06988B36968C1F3C1
:101CA0008101022945D00228C6F8608004D0FFF7E0
:101CB0004FFC044638E034E0FFF74AFC074604E0F6
:101CC000FFF746FCC01B02282BD828688001F7D4F8
:101CD000206AB0F5803F05D16868A16820F4003023
:101CE00008436860D4E908010843696821F4741165
:101CF00008436860C6F86090FFF72AFC044606E0D7
:101D000015E000BFFFF724FC001B022809D8286853
:101D10008001F7D50BE000BFFFF71AFC001B02287B
:101D200002D90320BDE8F88F28688001F4D4002090
:101D3000F8E70120F6E700000010024000004242F0
:101D400080044242AC0000200070004070B50400E6
:101D500005D00025A56294F8510010B104E00120DF
:101D600070BD204600F034F8022084F8510020684D
:101D7000016821F040010160D4E901010843D4E980
:101D800003121143084361690843218B01F4007178
:101D90000843E1690843216A0843A16A08432168AE
:101DA0000860A069042101EA1040616A08432168C3
:101DB00048602168E06A08612068C16921F4006117
:101DC000C1616565012084F85100002070BD0000EC
:101DD00010B50068144986B0884223D11348816940
:101DE00041F4805181618069114C00F4805004906D
:101DF000282000900220019003200390694620468D
:101E0000FFF7C2FA00211020CDE9000102916946D6
:101E10002046FFF7B9FA0748416841F0E06141F018
:101E20000101416006B010BD0030014000100240C9
:101E3000000C0140000001402DE9F84F044690F8E5
:101E4000500000260A9F9A4693460D464FF001081F
:101E500001280ED0012084F85000FFF779FB81465D
:101E600094F85100616801280CD0B1F5827F07D148
:101E700002E00220BDE8F88FA16809B9042801D06A
:101E80000226BDE055B1BBF1000F07D0BAF1000F3B
:101E900004D094F85100012802D004E00126AFE0FC
:101EA000052084F8510000206065C4F838B0A4F81B
:101EB0003EA0A4F83CA02563A4F836A0A4F834A062
:101EC0002064606420680168490603D4016841F019
:101ED00040010160E068B0F5006F606804D0E8B3CD
:101EE000E08E01283BD06AE010B1E08E01282ED1AF
:101EF000216835F8020BC860E08E401EE08626E0BF
:101F0000B8F1000F0DD0E08E58B1206881688907C4
:101F100007D535F8021BC160E08E401EE0864FF009
:101F20000008E08F58B120688168C90707D0C068F1
:101F30002BF8020BE08F401EE0874FF00108781C61
:101F400005D0FFF705FBA0EB0900B84246D2E08EB2
:101F50000028D5D1E08F0028D2D136E0FFE72168F4
:101F600015F8010B0873E08E401EE08627E000BFE5
:101F7000B8F1000F0DD0E08E58B120688168890754
:101F800007D515F8011B0173E08E401EE0864FF067
:101F90000008E08F58B120688168C90707D0C06881
:101FA0000BF8010BE08F401EE0874FF00108781C12
:101FB00005D0FFF7CDFAA0EB0900B8420ED2E08EB3
:101FC0000028D5D1E08F0028D2D13B460122022142
:101FD0002046CDF8009001F057FB08B103260FE032
:101FE0004A463946204601F03FFB18B10126202021
:101FF000606505E0A06818B92068C1688068009035
:10200000012084F85100002084F85000304631E768
:102010004FF0E0210428086903D020F00400086193
:10202000704740F00400FAE710B5401EB0F1807F21
:1020300001D3012010BD4FF0E02460610F21601733
:1020400001F0A4FA0020A06107202061002010BD4B
:102050007047704730B590F83C20012A20D001220B
:1020600080F83C20022380F83D3003685C6824F04F
:1020700070045C6003685C680D682C435C600368F6
:102080009C6824F080049C6003689C6849680C4349
:102090009C6080F83D20002180F83C10084630BD4F
:1020A000022030BD10B5040003D094F83D0010B1FB
:1020B00007E0012010BD002084F83C00204600F01D
:1020C0000DF8022084F83D00211D206801F024FC59
:1020D000012084F83D00002010BD000008B5016813
:1020E0000B48B1F1804F0BD00A4A914207D1C16928
:1020F00041F00401C161C06900F00400009008BD16
:10210000C16941F00101C161C06900F00100F5E75A
:102110000010024000080040022180F83D100168D4
:102120000A6842F001020A60012180F83D10002097
:1021300070470168CA6842F00102CA60006801681D
:1021400041F0010101600020704770B5044690F82D
:102150003C00012817D0012584F83C50022084F867
:102160003D002068826822F0770222F47F4282607C
:102170000868502837D00DDC202859D005DC88B3FA
:10218000102841D151E0022070BD302853D04028A2
:102190003AD13FE060282ED070280BD0B0F5805F98
:1021A00003D0B0F5005F2FD110E02068816821F0E6
:1021B000070115E0CB68D1E90121206801F0E2FBBD
:1021C0002168886840F0770088601DE0CB68D1E91D
:1021D0000121206801F0D6FB2068816841F480412C
:1021E000816011E01EE0CA684968206801F07EFC49
:1021F0005021206806E0CA684968206801F087FC21
:102200006021206801F0C8FB84F83D50002084F86C
:102210003C0070BDCA684968206801F067FC402135
:102220002068EFE700212068ECE710212068E9E74B
:1022300020212068E6E730212068E3E7704770B589
:102240000446006801694FF00005C943890715D4A9
:10225000C168C943890711D4E91E016101202077B3
:10226000206880698007204602D0FFF7E7FF04E07E
:1022700000F0B6F8204600F04BF925772068016998
:10228000C943490717D4C168C943490713D46FF03C
:1022900004010161022020772068806910F4407FEA
:1022A000204602D0FFF7CAFF04E000F099F820466C
:1022B00000F02EF9257720680169C943090716D473
:1022C000C168C943090712D46FF0080101610420F5
:1022D00020772068C0698007204602D0FFF7AEFF54
:1022E00004E000F07DF8204600F012F92577206820
:1022F0000169C943C90617D4C168C943C90613D4C3
:102300006FF010010161082020772068C06910F487
:10231000407F204602D0FFF791FF04E000F060F814
:10232000204600F0F5F8257720680169C943C90700
:1023300008D1C168C943C90704D1891E016120467B
:1023400000F0E8F820680169C943090609D4C168AA
:10235000C943090605D46FF0800101612046FFF7EB
:1023600077FE20680169C943490609D4C168C94399
:10237000490605D46FF040010161204600F0D4F811
:1023800020680169C94389060BD4C168C94389061D
:1023900007D46FF0200101612046BDE87040FFF7CF
:1023A00058BE70BD1FB500680A49884210D102248A
:1023B000C020CDE90004694607480394FEF7E4FF16
:1023C0000320CDE90004694604480394FEF7DCFFCE
:1023D0001FBD00000004004000080140000C014047
:1023E000704770B5044690F83C000D4601280DD0AA
:1023F000012684F83C60022084F83D0042B1042AA2
:1024000018D0082A2AD00C2A4DD139E0022070BDFC
:10241000206801F0C9FA2068816941F008018161F2
:102420002068816921F004018161206881692A693D
:10243000114311E0206801F0DFFA2068816941F45E
:10244000006181612068816921F480618161206877
:1024500081692A6941EA0221816124E0206801F052
:10246000F7FA2068C16941F00801C1612068C169BB
:1024700021F00401C1612068C1692A69114311E09A
:10248000206801F011FB2068C16941F40061C1615D
:102490002068C16921F48061C1612068C1692A692D
:1024A00041EA0221C16184F83D60002084F83C00CB
:1024B00070BD10B5040003D094F83D0010B107E0E2
:1024C000012010BD002084F83C00204600F00CF8EC
:1024D000022084F83D00211D206801F01DFA012032
:1024E00084F83D00002010BD08B500680649884208
:1024F00008D10648C16941F00201C161C06900F01C
:102500000200009008BD00000004004000100240DE
:102510007047000000680349884201D1FFF71EB8E8
:1025200070470000002C0140704710B50446006859
:10253000416994F83920C1F3C011212A0BD151B15E
:10254000416921F080014161206B08B1FEF792FDE5
:10255000204601F068FB2068416994F83A20C1F3F5
:102560008011222A0BD151B1416921F04001416112
:10257000606B08B1FEF77EFD204601F046FB0020AF
:1025800010BD704770B5026804461068D168536981
:1025900010F00F0F50D003F0010501F49076354391
:1025A0005DD0C20705D0CA0503D5E26B42F0010237
:1025B000E263420705D5DA0703D0E26B42F002027C
:1025C000E263820705D5DA0703D0E26B42F004022A
:1025D000E263020705D5DA0703D0E26B42F0080296
:1025E000E263E26B002A33D0800604D5880602D568
:1025F000204601F021FB20684069E16BC0F38010A8
:10260000090700D428B3204601F0FFFA2068416989
:1026100049061AD5416921F040014161606BA0B1C2
:102620001B494163606BFEF73DFD002810D0606BD5
:10263000416BBDE870400847830610D58B060ED568
:102640002046BDE8704001F0F7BA2046FFF799FF39
:1026500070BD2046FFF795FF0020E06370BD0306C4
:1026600006D50B0604D52046BDE8704001F0E8BB56
:102670004006F3D54806F1D5D168204621F0400147
:10268000D160202184F8391000F08AF970BD000073
:10269000333B000870B5040004D094F839000025DD
:1026A00010B106E0012070BD84F83850204600F0DB
:1026B00023F8242084F839002068C16821F40051EF
:1026C000C160204601F004FB2068016921F49041BB
:1026D00001612068416921F02A0141612068C168D7
:1026E00041F40051C160E563202084F8390084F88A
:1026F0003A00002070BD00002DE9F0430446DFF8E9
:1027000058C10368554802210322554E00258027F1
:1027100085B04FF010084FF02009634548D1836918
:1027200043F4804383618069039200F48040049005
:102730000802CDE9000169463046FEF725FE301556
:10274000CDE90005694630460295FEF71DFE464E6E
:102750004448C6E90005C6E9025735617561B561AF
:102760003046F561FEF794FD18B195213FA001F0C8
:1027700046FC666374623C4E3A4844361438C6E9F7
:1027800002573561C6E90559F561C6E900083046CA
:10279000FEF77EFD18B1A52134A001F030FC2663C0
:1027A0000022052125207462FEF780FF25204DE0E0
:1027B000DFF8CCC063454BD1C36943F40033C36138
:1027C000C069039200F4003004900420CDE90001B8
:1027D00069463046FEF7D8FD0820CDE90005694678
:1027E00030460295FEF7D0FD1F4E1E488836143045
:1027F000C6E90005C6E9025735617561B561304625
:10280000F561FEF745FD18B1D32118A001F0F7FBE3
:1028100066637462144E1348CC362830C6E90257FA
:102820003561C6E90559F561C6E900083046FEF78D
:102830002FFD18B1E3210DA001F0E1FB266300227A
:10284000052126207462FEF731FF2620FEF722FFC5
:1028500005B0BDE8F08300000038014000100240E0
:102860000008014058000240F80500202E2E2F439A
:102870006F72652F5372632F75736172742E6300CC
:1028800000440040F8B5044690F83A0020283CD1B6
:10289000C1B3BAB394F83800012836D0012084F8C7
:1028A0003800A162A2850025E563222084F83A0061
:1028B000636B17489862636B1648D862636B16485F
:1028C0001863606B134645630846666B21680246D1
:1028D0003046091DFEF70EFD206801684168009131
:1028E00084F83850C16841F48071C1602068416942
:1028F00041F0010141612068416941F040014161BD
:102900000020F8BDFFE70120FBE70220F9E7000007
:102910008D3B0008C93B0008433B000870477047E7
:1029200070B5044690F83900202830D169B362B3FD
:1029300094F8380001282AD0012084F83800216258
:10294000A284E2840025E563212084F83900236B0A
:1029500010489862236B1048D862236B0F481863A5
:10296000206B134645632668206B321DFEF7C2FCC0
:1029700021686FF04000086084F838502068416991
:1029800041F080014161002070BD012070BD022036
:1029900070BD0000D33B0008013C0008433B000829
:1029A00070477047FEE700002DE9F04F87B01D46E5
:1029B00014460F468046FE4890F8BC0000287DD0A3
:1029C000DFF8F0B30026E9460DF10C0A58F826109E
:1029D00049F8261057F826005946FDF79AFC4AF8A0
:1029E0002600761CF6B2032EF0D3009810F0FF4FAD
:1029F00007D1019810F0FF4F03D1029810F0FF4F5C
:102A00007ED002990846FDF784FC019907460846E6
:102A1000FDF77FFC009906460846FDF77AFC314633
:102A2000FDF71FFC3946FDF71CFC01F0E5FC0646EE
:102A300031460098FDF76DFC009031460198FDF796
:102A400068FC019031460298FDF763FC0290D5F8CE
:102A50001C804146FDF75DFC2F6A06463946019809
:102A6000FDF757FC3146FDF74EFCD34E39467061F9
:102A700006900098FDF74DFCAF69814639460298F3
:102A8000FDF747FC4946FDF73EFC8346B0613946F9
:102A90000198FDF73EFC074641460098FDF739FCDA
:102AA0003946FDF730FCF061316982460F460698E1
:102AB000FDF72FFC3168FDF7D4FB00E077E181469C
:102AC000306039465846FDF724FC7168FDF7C9FBB4
:102AD0008046706039465046FDF71BFCB168FDF733
:102AE000C0FB0746B060F06806990646FDF711FC8A
:102AF0000399FDF7B6FB4946FDF7B3FB594600E0E5
:102B000015E003903046FDF704FC0499FDF7A9FB9E
:102B10004146FDF7A6FB049051463046FDF7F9FB10
:102B20000599FDF79EFB3946FDF79BFB0590D4F810
:102B30000C9005994846FDF7ECFBA668824604997F
:102B40003046FDF7E6FB6768804687F00040039952
:102B5000FDF7DFFB4146FDF7D6FB5146FDF7D3FB02
:102B60004FF0FF3A5146FDF744FC1099FDF7D1FBB9
:102B70002168FDF776FB2060804648460499FDF702
:102B8000C8FB069030460599FDF7C3FB83464046D7
:102B90000399FDF7BEFB5946FDF763FB0699FDF768
:102BA000B2FB5146FDF725FC1099FDF7B2FB394603
:102BB000FDF757FB6060074648460399FDF7A9FB00
:102BC000069038460599FDF7A4FB834640460499D4
:102BD000FDF79FFB5946FDF796FB0699FDF741FB74
:102BE0005146FDF706FC1099FDF793FB3146FDF7C2
:102BF00038FBA06006460399FDF78BFB069038462C
:102C00000499FDF786FB834640460599FDF781FB55
:102C10005946FDF726FB0699FDF775FB5146FDF772
:102C2000E8FB1099FDF775FB4946FDF71AFB0146D5
:102C3000E060FDF76EFB824631460846FDF769FB12
:102C4000814639460846FDF764FB0646414608467C
:102C5000FDF75FFB3146FDF704FB4946FDF701FB3D
:102C60005146FDF7FEFA01F0C7FB064631462068E3
:102C7000FDF74FFB8146206031466068FDF749FB58
:102C8000804660603146A068FDF743FB0746A060C0
:102C90003146E068FDF73DFB0646E06039464846B0
:102CA000FDF737FB074631464046FDF732FB394614
:102CB000FDF729FB0121FDF79CFB0746A861D4E93C
:102CC0000201FDF726FB0646D4E90001FDF721FBD2
:102CD0003146FDF7C6FA0121FDF78BFBE861E0689C
:102CE0000146FDF716FB8146A0680146FDF711FB82
:102CF000064660680146FDF70CFB804620680146E9
:102D0000FDF707FB4146FDF7FEFA3146FDF7FBFAFA
:102D10004946FDF7A6FA2862E0680146FDF7F9FA90
:102D20008046A0680146FDF7F4FA814660680146D6
:102D3000FDF7EFFA064620680146FDF7EAFA31464C
:102D4000FDF78FFA4946FDF7DEFA4146FDF7DBFA5B
:102D50002860E1682068FDF7DCFA0646D4E9010145
:102D6000FDF7D7FA3146FDF77CFA0121FDF741FB6B
:102D7000E860384601F07AF9104E3146FDF7C9FA9D
:102D80000D4C20342060D5E9070101F001FA3146ED
:102D9000FDF7BFFA60602968E86801F0F9F90849B1
:102DA000FDF7B7FAA0600248002180F8BC1009E0E6
:102DB0001801002035FA8E3C08000020E12E654203
:102DC000E12E65C207B0BDE8F08F000038B50446BB
:102DD000094800F025FD094B0949A3F11002A1F1B2
:102DE00084000094FFF7E0FDBDE838400349024845
:102DF000243100F019BD00002804002050000020FC
:102E0000B40100202DE9FF411B4F144688460546BA
:102E10004FF40046002231463846FEF793FBBB20B4
:102E200000F0F6FB0E226946002000F001FCBDF820
:102E30000000012240BA2880BDF80200314640BAA5
:102E40006880BDF8040040BAA880BDF8060040BA0A
:102E5000A8F80000BDF8080040BA2080BDF80A00BC
:102E600040BA6080BDF80C0040BAA0803846FEF73A
:102E700069FBBDE8FF810000000801402DE9FE4F1D
:102E8000544CDFF84CE1D4E91A108046D4E920967E
:102E9000D4E91C0CBEF80050B246626ED4E91E673D
:102EA000E346B5F5FA7F4ED2B4F9563005F1010587
:102EB0001A44626634F9582F11442161B4F902C0F2
:102EC00008EB0C0161610EF10201B1F80080A3EB87
:102ED00008080FFA88F8CDF80880B1F80280A2EB54
:102EE00008080FFA88F8CDF80480B1F80480ACEB3C
:102EF00008080FFA88F8CDF800800B804A80A1F806
:102F000004C0DDF8088008FB08F818EB00004BEB64
:102F1000E871C4E90601DDF8048008FB08F818EB45
:102F2000060147EBE870C4E90810DDF8008008FBF3
:102F300008F818EB09024AEBE870C4E90A20AEF879
:102F40000050BDE8FE8F92FBF5F291FBF5F112B255
:102F500024F8882F029209B26180019198FBF5F163
:102F600009B2A18000912A4600235946FDF726F9AF
:102F70008046A0602A46002330463946FDF71EF9F8
:102F80000646E0602A46002348465146FDF716F9FA
:102F90002061014608EB06000844883C0A2808DA4C
:102FA0000298A4F85C000198A4F85E000098A4F8C8
:102FB0006000002044F8640F05496060A060C4E927
:102FC0000300C4E90500C4E907000880B9E7000070
:102FD000000000201801002010B5752000F046F810
:102FE000702801D0002010BD81216B2000F05AF81C
:102FF0006420FEF7B7F900216C2000F053F864203C
:10300000FEF7B0F90721682000F04CF86420FEF7C5
:10301000A9F901216A2000F045F86420FEF7A2F921
:103020000021192000F03EF80520FEF79BF903214E
:103030001A2000F037F80520FEF794F918211B201C
:1030400000F030F80520FEF78DF910211C2000F06B
:1030500029F80520FEF786F904211D2000F022F84A
:103060000520FEF77FF9012010BD000070B50C4E61
:1030700004464FF40045002229463046FEF762FA26
:1030800044F0800000F0C4FAFF2000F0C1FA0446CA
:10309000012229463046FEF755FA204670BD000051
:1030A000000801402DE9F0410B4D0F4606464FF454
:1030B0000044002221462846FEF744FA304600F03C
:1030C000A7FA384600F0A4FA21462846BDE8F041A8
:1030D0000122FEF737BA0000000801403EB5124851
:1030E0001049002501600124C0E902544561456092
:1030F0004FF460210461C161FDF7E6FE18B14F2174
:103100000AA000F07CFF009469460748CDE901451C
:10311000FDF75CFE002803D0592104A000F06FFFEA
:103120003EBD0000002401405C0300202E2E2F43F2
:103130006F72652F5372632F6164632E630000000A
:10314000194808B5416941F0010141614069002217
:1031500000F00100009005210B20FEF7A7FA0B20DC
:10316000FEF798FA002205210E20FEF79FFA0E20A6
:10317000FEF790FA002205210F20FEF797FA0F20A4
:10318000FEF788FA002205211020FEF78FFA1020A2
:10319000FEF780FA002205211120FEF787FABDE82C
:1031A00008401120FEF776BA0010024030B59FB0FB
:1031B000142228496846FDF742F80021684601F0CC
:1031C0007FF9254C234914226060143105A8FDF7CE
:1031D00036F8002105A801F073F91E49A0601422F9
:1031E00028310AA8FDF72BF800210AA801F068F998
:1031F0001849E06014223C310FA8FDF720F80021A7
:103200000FA801F05DF9134920611422503114A870
:10321000FDF715F8002114A801F052F90D4960617D
:103220001422643119A8FDF70AF8002119A801F049
:1032300047F9A061E06801F075F90848012580F8B8
:103240002350206901F06EF9054880F823501FB023
:1032500030BD00000C52000884000020E80400206B
:103260003005002030B5174885B0816941F0200154
:103270008161816901F020010491816941F00401BB
:103280008161816901F004010491816941F00801C3
:10329000816180690C4D00F008004FF411440490E6
:1032A000012221462846FEF74DF901210320CDE9F0
:1032B0000210CDE9004169462846FEF765F805B0E1
:1032C00030BD00000010024000080140114810B558
:1032D0000F4901604FF48271416000218160C1603B
:1032E0004FF400720161C0E905120822C0E907210C
:1032F000416281620A21C162FEF728FD002805D0E3
:10330000BDE810404F2104A000F079BE10BD0000C0
:1033100000300140D00300202E2E2F436F72652F06
:103320005372632F7370692E6300000010B5184844
:1033300086B04FF08041016047210024C0E90114AC
:103340004FF6FF71C0E9031480218161FEF7AAFEE8
:1033500018B14B210FA000F052FE4FF480500090A6
:1033600069460B48FEF7F1FE18B1512109A000F0A3
:1033700046FE049404A906480594FEF76BFE002857
:1033800003D0582103A000F03AFE06B010BD0000A3
:10339000280400202E2E2F436F72652F5372632F47
:1033A00074696D2E6300000010B52A488AB0284960
:1033B000016047210024C0E9011444F62061C0E9FE
:1033C000031480218161FFF774F818B16A2122A0EB
:1033D00000F015FE079407A91E480894FEF73AFE70
:1033E00018B171211CA000F00AFE6020CDE9000494
:1033F00002940022694617480494FEF7F2FF18B1C0
:103400007A2115A000F0FBFD042269461148FEF761
:10341000E8FF18B17F2110A000F0F1FD08226946F5
:103420000C48FEF7DEFF18B184210BA000F0E7FD89
:103430000C2269460748FEF7D4FF18B1892106A07F
:1034400000F0DDFD0348FEF7ADFF0AB010BD00003F
:1034500000040040680400202E2E2F436F72652F59
:103460005372632F74696D2E6300000010B5184805
:1034700086B01649016047210024C0E901144FF6C7
:10348000FF71C0E9031480218161FEF70BFE18B1C2
:103490009D2110A000F0B3FD4FF4805000906946CC
:1034A0000B48FEF752FE18B1A3210AA000F0A7FDB9
:1034B000049404A906480594FEF7CCFD002803D027
:1034C000AA2104A000F09BFD06B010BD000800403A
:1034D000A80400202E2E2F436F72652F5372632F86
:1034E00074696D2E630000000D4810B50B49016032
:1034F0004FF4E1314160002181600C22C160C0E9DC
:1035000004128161C161FFF7C5F8002805D0BDE84C
:103510001040572103A000F072BD10BD00380140DB
:10352000780500202E2E2F436F72652F5372632F64
:1035300075736172742E63000D4810B50B490160FC
:103540004FF4E1314160002181600C22C160C0E98B
:1035500004128161C161FFF79DF8002805D0BDE824
:1035600010406A2103A000F04ABD10BD0044004095
:10357000B80500202E2E2F436F72652F5372632FD4
:1035800075736172742E6300FEE770470907090EB8
:10359000002806DA00F00F0000F1E02080F8141D8A
:1035A000704700F1E02080F8001470471649487B0E
:1035B00008B1012200E000221448027252B10188D1
:1035C000B1F57A7F01D9491E0180002141808180B7
:1035D000C18070478A88322352BA02F57A7202801B
:1035E000CA8852BA12B292FBF3F242800A8952BAE6
:1035F00013B2192293FBF2F38380498949BA09B2C5
:1036000091FBF2F1E4E7000030050020D801002032
:1036100001B582B04FF47A700090012301AA02A98B
:103620000248FEF709FC9DF804000EBDD0030020FF
:1036300030B50C4B10E010B110F8014B00E0FF2446
:103640009D68AD07FCD5DC609C68E407FCD0DC68B5
:10365000E4B209B101F8014B521E92B2EBD2002044
:1036600030BD00000030014038B50B4600920446E2
:103670000022802100F008F8002804D0606D40F09E
:1036800020006065032038BD2DE9F0411D46174636
:103690000E460446DDF8188035E0681C33D02DB1A5
:1036A000FDF756FFA0EB0800A8422CD32068416824
:1036B00021F0E00141606068B0F5827F0BD1A06825
:1036C000B0F5004F02D0B0F5806F04D120680168DA
:1036D00021F040010160A06AB0F5005F0AD12068C6
:1036E00001684DF6FF72114001602068016841F4E5
:1036F00000510160012084F85100002084F850003E
:103700000320BDE8F0812068806836EA000004D01C
:103710000020B842C1D10020F3E70120F9E7000002
:1037200070B5334AA2F12801A1F12800FFF76AFB26
:103730002F4C503C60884042E08034F8280B24F83D
:10374000200C34F8240C24F81E0C608D4042E085D7
:10375000208D2086A08D6086FFF790FB34F9220C27
:10376000FCF753FE6FF00B052946FCF742FE44F8C8
:103770001C0C34F9200CFCF748FE2946FCF739FEF6
:1037800044F8180C34F91E0CFCF73FFE2946FCF7F0
:1037900030FE174944F8140C3839A1F10C00FDF73C
:1037A000F5FAB4F92E00B4F93410401AFCF72DFEE6
:1037B000104D2946FCF7DFFD6067B4F93000B4F91D
:1037C0003610401AFCF721FE2946FCF7D4FDA0670D
:1037D000B4F93200B4F93810401AFCF716FE294645
:1037E000FCF7C9FDE067012084F8940070BD00007B
:1037F000680100206F12834110B5054800F010F8F1
:10380000FFF78EFFBDE810400249014800F00CB8F8
:1038100028040020D0010020012000F03BFEFBE73F
:10382000006800214162704710B500680C46406A8C
:10383000FCF7F4FD0249FCF79EFD206010BD00007E
:1038400000007A4400F032BE30B593B00121080484
:10385000CDE900100025029502240491CDE907402E
:103860004FF4E01009906846FEF7EEF800B1FEE76D
:103870000AA90F2081E831004FF48060CDE90D05E1
:1038800002210AA8FDF7BAFF00B1FEE74FF400409D
:1038900011900F940FA8FDF73BFF00B1FEE7FEF774
:1038A00077F84FF47A71B0FBF1F0FEF7BDFB04201E
:1038B000FEF7AEFB00220F21501EFDF7F7FE13B0FE
:1038C00030BD00000D48016841F001010160416810
:1038D0000B4A1140416001680A4A114001600168C9
:1038E00021F480210160416821F4FE0141604FF420
:1038F0001F0181600449C003086070470010024046
:103900000000FFF8FFFFF6FE08ED00E00148FEF7BB
:1039100096BC000008070020F0B50268164B174C53
:10392000174D4FF08047984205D0B84203D0A042CF
:1039300001D0A84203D122F070064A68324398426F
:1039400005D0B84203D0A04201D0A84203D122F44E
:103950004074CA68224322F080044A69224302600C
:103960008A68C2620A688262984201D10969016369
:1039700001214161F0BD0000002C01400004004025
:103980000008004010B5846842EA032224F47F4412
:103990000A432243826010BD826822F070020A430B
:1039A00042F007018160704730B5026A22F00102DF
:1039B0000262026A4368846924F073050C682C4330
:1039C00022F002058A682A430A4DA8420BD122F050
:1039D0000805CA6823F440732A434D6922F00402A3
:1039E0001D438B692B4343608461496841630262D4
:1039F00030BD0000002C014030B5026A22F01002F8
:103A00000262026A436884690D6824F4E64444EA69
:103A100005248D6822F0200242EA05120B4DA842CF
:103A20000ED1CD6822F0800242EA05124D6923F4DE
:103A3000406343EA85038D6922F0400243EA85032F
:103A40004360846149688163026230BD002C01409B
:103A500030B5026A22F480720262036A4268C46965
:103A600023F4007324F073050C682C438D6843EA3B
:103A700005230C4DA8420ED1CD6823F4006343EA20
:103A800005234D6922F4405242EA05128D6923F460
:103A9000806342EA05124260C4614968C1630362FF
:103AA00030BD0000002C014030B5026A22F4805283
:103AB0000262046A4268C3690D6823F4E64343EA7C
:103AC00005238D6824F4005444EA0534064DA842C9
:103AD00004D14D6922F4804242EA85124260C361FA
:103AE00049680164046230BD002C014010B5036ACE
:103AF000046A24F001040462846924F0F00444EAB6
:103B0000021423F00A020A438461026210BD10B558
:103B1000036A23F0100303628369046A23F4704389
:103B200043EA023224F0A00343EA011182610162F8
:103B300010BD10B5406A0021C185C184FEF721FD8A
:103B400010BD70B5446A2068406994F83910C0F31C
:103B5000C0100025212904D118B1E584204600F0C9
:103B600062F82068406994F83A10C0F38010222966
:103B700004D118B1E585204600F047F8E06B40F02D
:103B80001000E0632046FEF7FCFC70BD10B5014656
:103B9000406A09680968890613D40021C185016853
:103BA000CA6822F48072CA6001684A6922F0010280
:103BB0004A6101684A6922F040024A61202180F886
:103BC0003A10FEF7ABFE10BD10B5406AFEF7A7FE37
:103BD00010BD10B50146406A0968096889060CD411
:103BE0000021C18401684A6922F080024A610068AC
:103BF000C16841F04001C16010BDFEF7D1FE10BDAB
:103C000010B5406AFEF7CDFE10BD0168CA6822F407
:103C10009072CA6001684A6922F001024A6120215B
:103C200080F83A1070470168CA6822F0C002CA6082
:103C3000202180F83910704710B590F83A102229E9
:103C400001D0022010BD8168B1F5805F11D00169FB
:103C5000002901681FD0496801F07F03816A4A1C6E
:103C600082620B70C18D491E0904090CC18518D0F0
:103C70002BE00269816A002A0268526805D0D2B23C
:103C80000A80816A491C8162ECE7C2F308020A805B
:103C9000816A891CF7E74A68816A4B1C83620A7053
:103CA000E0E70168CA6822F02002CA600168CA68B9
:103CB00022F48072CA6001684A6922F001024A61F6
:103CC000202180F83A10FEF729FE002010BD0000E8
:103CD0002DE9F041044600680169E26821F4405191
:103CE000114301612169A0680843616908432168A3
:103CF000CA6841F20C639A430243CA602068416972
:103D0000A26921F44071114341614C492068642546
:103D1000322688423CD1FDF751FE00EBC00101EB99
:103D2000001061688900B0FBF1F7FDF747FE00EB7A
:103D3000C00101EB00106168B0468900B0FBF1F0F2
:103D4000B0FBF5F06FF01801484307EB800106EB7C
:103D50000110B0FBF5F000F0F006FDF72FFE00EBD0
:103D6000C00101EB001061688900B0FBF1F0B0FB0D
:103D7000F5F006EB0016FDF721FE00EBC00101EBAC
:103D8000001061688900B0FBF1F7FDF717FE3BE01A
:103D9000FDF704FE00EBC00101EB00106168890033
:103DA000B0FBF1F7FDF7FAFD00EBC00101EB0010ED
:103DB0006168B0468900B0FBF1F0B0FBF5F06FF040
:103DC0001801484307EB800106EB0110B0FBF5F04A
:103DD00000F0F006FDF7E2FD00EBC00101EB001082
:103DE00061688900B0FBF1F0B0FBF5F006EB00165E
:103DF000FDF7D4FD00EBC00101EB00106168890004
:103E0000B0FBF1F7FDF7CAFD00EBC00101EB0010BC
:103E100061688900B0FBF1F0B0FBF5F06FF01801BC
:103E2000484307EB800108EB0110B0FBF5F0216877
:103E300000F00F0030448860BDE8F0810038014098
:103E400090F83910212901D0022070478168B1F51E
:103E5000805F016A0BD04A1C0262026809785160D7
:103E6000C18C491E0904090CC1840ED017E00988D1
:103E70000268C1F30801516001690029016A02D09A
:103E8000491C0162ECE7891CFBE70168CA6822F063
:103E90008002CA600068C16841F04001C160002032
:103EA0007047F8B5074600680E461C46016815467F
:103EB000C943C90616D40168406800903846FEF729
:103EC00034FB30684068281A0004000C208402D0BB
:103ED000012084F822002A4621463846BDE8F840F1
:103EE000FEF7D0BCF8BD00000148FEF74BBB000058
:103EF0007805002010B50D4B20220D490D48FFF725
:103F0000D0FF0A4890F8221051B190F8231039B12F
:103F1000002100F8221F41700748006800F0E8FA0D
:103F2000BDE810400348FEF72DBB0000300500201F
:103F300080060020B8050020940000200A4910B532
:103F4000202201F18800FEF79DFC07492022243140
:103F500001F16400FEF7E4FC034888300068C168A2
:103F600041F01001C16010BD3005002030B4C178AF
:103F70000022091DCBB2114604E0445C491C2244D6
:103F8000D2B2C9B29942F8D3C15C914208D101784A
:103F9000AA2905D14078BF2802D130BCFFF706BB63
:103FA00030BC704710B5002303E0D45CCC545B1CDC
:103FB000DBB20C8C9C42F8D8012281F822200268E6
:103FC000136823F0010313600268098C51600068D4
:103FD000016841F00101016010BD0000064B10B501
:103FE0001C680C4207D059600068016821F001018B
:103FF00001600020107010BD00000240FEE7FEE7E7
:104000004100080218BF04200A0E18BF40F001004A
:104010004FF07F4232EA010108BF40F00200012860
:1040200008BF052070470121FCF7E3B9FCF719B977
:1040300000210846FCF79FB96FF05E010807FCF706
:10404000D8B902E008C8121F08C1002AFAD1704787
:104050007047002001E001C1121F002AFBD1704708
:104060000149086070470000100100202DE9F0416F
:1040700004464FF00E4000EB4400B0F1506F204674
:1040800055D84FF0FC41B1EB440F1CD224F0004056
:104090004FF07E51FCF73AF94FF0FF31FCF7A9F9E8
:1040A000054600F079FC14F0004F1DBF2F4F304E35
:1040B00080F000402F4F08BF2F4E4FF04041FCF7DB
:1040C00028F9044605E000273E460146FCF721F9A1
:1040D00005462A492846FCF71CF92949FCF7C1F88E
:1040E0002946FCF716F92749FCF7BBF82946FCF7E7
:1040F00010F92549FCF7B5F82946FCF70AF92349D8
:10410000FCF7AFF8804629462046FCF702F9414605
:10411000FCF7FFF8054631462046FCF7A2F8294691
:10412000FCF79FF83946BDE8F041FCF79AB84FF02C
:10413000E441B1EB440F08D9FFF762FF042808BF40
:10414000FFF77AFF2046BDE8F0814FF07F41B1EBE9
:10415000440F03D2BDE8F041FFF765BF0120FFF730
:104160007FFFBDE8F041FFF763BF00000000C9BF5B
:1041700022AAFDB90000C93F22AAFD3924FE1C3D38
:10418000C78AD83C1E67383D1B93993DAFAA2A3E8B
:104190002DE9F0474FF0684202EB40030C4605461C
:1041A000B3F1654F3CBF02EB4102B2F1654F7CD2E7
:1041B000C0F3C753C1F3C7529A1A1B2A06DD10F089
:1041C000004F14BF76487748BDE8F08712F11A0F08
:1041D00017DA11F0004F06D010F0004F0CBF7248F4
:1041E0007248BDE8F08721462846FCF7C4F804462B
:1041F000FFF706FF042808BFFFF71EFF2046BDE8B3
:10420000F0874200B2EB410F25D910F0004F19BFE3
:10421000674F684E684F694E224685F00044154648
:104220000A4680F0004110460A1A5200B2F1807F1F
:1042300040D248406249DFF88CA110F0004F18D0FE
:104240004FF03F483846FCF75EF807465146304687
:10425000FCF759F817E011F0004F04BF002637466D
:10426000E2D010F0004F19BF574F584E584F594EDB
:10427000DAE74FF07C583846FBF7F3FF0746514624
:104280003046FBF7EEFF064641462846FCF741F86C
:104290002146FBF7E6FF824621464046FCF739F807
:1042A0002946FCF733F8514600E037E0FCF763F8A5
:1042B000044604E021462846FCF75DF80446014622
:1042C000FCF727F880464449FCF723F84349FBF7FD
:1042D000C8FF4146FCF71DF84149FBF7C2FF4146C4
:1042E000FCF717F83F49FBF7BCFF4146FCF711F814
:1042F0003D49FBF7B6FF054641462046FCF709F865
:104300002946FCF706F83146FBF7ABFF2146FBF7E1
:10431000A8FF3946BDE8F047FBF7A3BF4FF07F4247
:10432000B2EB400F28BFB2EB410F03D2BDE8F0471C
:10433000FFF77CBE40EA01035B0008BF44F0FF4189
:104340000AD0B2EB400F08BFB2EB410F06D125F007
:10435000804024F0804105460C4629E7B2EB400F2F
:1043600012BF5FEA410245F0FF4004F000413FF414
:104370001FAF4A0092EA40033FF51AAF002AACBFD4
:104380004FF09F464FF03E563146FBF7C2FF0546C1
:1043900031462046FBF7BDFF04462846214607E785
:1043A000DB0FC9BFDB0FC93FDB0F4940DB0F49C043
:1043B0000000C9BF22AAFDB90000C93F22AAFD39E9
:1043C0000060ED3EC30ACE37000049C022AA7DBA84
:1043D0000000494022AA7D3A2DAD65BD8FB8D53D7C
:1043E0000FB511BE61C84C3EA8AAAABEEFF3058066
:1043F000002800D0012070471CB504464FF0FF3163
:10440000FBF7F7FFCDE900400949A1EB6400014645
:1044100000900198FBF77DFF0099FBF77AFF4FF0C2
:104420007F51FBF773FF0099FBF773FF00901CBDF2
:10443000865A375FFDF79AF8FFF706FAFEF712FF84
:10444000FEF77EFEFEF74AFEFEF740FFFEF76EFF28
:10445000FEF7AAFFFFF70AF8FFF746F8FFF76CF838
:104460000748FDF759FE0748FDF756FEFFF766FDC2
:10447000FEF7B2FDFEF79AFE00F013F8FEE700002B
:1044800028040020A804002001460020842900D030
:10449000C81C704710B500B9012000F0B1FB002026
:1044A00010BD10B500F056FC002010BD10B500F096
:1044B0008FFD012803D0BDE8104000F047BD10BDBE
:1044C0003EB504460D46B0F90800FFF7DDFF02A92E
:1044D000CDE90001208A2B4682B2D4E9001000F019
:1044E0004BFD012801D000203EBD02983EBD0000DA
:1044F00010B50446FFF77AFF002820460BD000F0E5
:1045000041FE012809D1064900070860BFF34F8F1B
:10451000BFF36F8F01E000F0DFFB002010BD000053
:1045200004ED00E010B500F049FC002010BD0000D3
:104530002DE9F041184C0F460546E6682068001D3D
:1045400000F07EFA38B9206890F82C1001208840DD
:10455000216981432161681C07D137B12168BDE819
:10456000F0410E48091D00F0A3BA20683544B54259
:104570004560216805D2A06BBDE8F041091D00F03F
:104580007FBA606B091D00F07BFAA06A854200D2F9
:10459000A562BDE8F0810000D4000020F82E0020C4
:1045A0002DE9F041054600F08FFA2E4CA068401C22
:1045B000A06020682C4F10B1606940B32DE02560E9
:1045C000A068012829D1002606EB860007EB8000B1
:1045D00000F048FA761C042EF6D32348503000F041
:1045E00041FA2148643000F03DFA1F48783000F06D
:1045F00039FA1D488C3000F035FA1B48A03000F025
:1046000031FA1948503060631430A06305E0206827
:10461000E96AC06A884200D82560606A401C60620E
:10462000E96A0120226988401043206101EB810082
:1046300007EB8000291D00F03BFA00F065FA606985
:1046400000280CD02068E96AC06A884207D207496E
:104650004FF080500860BFF34F8FBFF36F8FBDE8FE
:10466000F0810000D4000020582E002004ED00E06E
:1046700070B5114E114C17E000F0F8FB3068B8B17E
:1046800000F01EFD00F020FAF068C568281D00F05B
:10469000D7F9A068401EA0606068401E606000F00E
:1046A00033FA284600F00CF860680028E4D170BDA9
:1046B00000F006FDF8E70000E42E0020D400002002
:1046C00010B50446006B00F033FA2046BDE81040F8
:1046D00000F02EBA0F4842F21071420705D0C01DFB
:1046E0000C4A20F00700821A891A0B4A0023014461
:1046F000C2E900030839103A21F0070111604B604C
:104700000B600B1AC0E9001393604FF00040536038
:10471000D060704748070020C0000020074C4FF0D1
:104720008056074DFFF7A4FF20680128FAD92E60B4
:10473000BFF34F8FBFF36F8FF4E70000582E0020B8
:1047400004ED00E02DE9F0479A46DDE90984814651
:104750006FF00303206B03EB82021044089D20F0EE
:104760000706700707D0502080F31188BFF34F8FE2
:10477000BFF36F8FFEE723180A5C83F834200A5CCE
:1047800012B1401C1028F6D3002784F84370042D82
:1047900000D30325E562C4E91157201D00F06DF92F
:1047A00004F1180000F069F92461C5F104006462A5
:1047B000A061E76484F8507052464946304600F0E4
:1047C000D9F82060B8F1000F01D0C8F80040BDE86A
:1047D000F087000030B5114900E011460A688242B6
:1047E000FBD34B685C18844203D14068184448608E
:1047F000084643681C18944209D1084C103C2468B0
:10480000A24209D052681A4442600A6812680260E3
:10481000814200D0086030BD0460F9E7C00000208C
:104820000648416B096829B1416BC968C968496884
:10483000816270474FF0FF31FAE70000D40000209A
:1048400008484068401C4FF0500080F3118804D0A5
:10485000BFF34F8FBFF36F8FFEE7BFF34F8FBFF3F1
:104860006F8FFEE7C8000020002150B10A4B42695B
:104870009A420FD1806AA3F1280290420AD040B137
:1048800008E0502080F31188BFF34F8FBFF36F8F84
:10489000FEE7012108467047F82E00202DE9F0417F
:1048A0000546002700F0E2FA314E306808B9FFF7FC
:1048B00011FFF06805424BD1C5B3083568070ED02B
:1048C00005F00700C0F108000544680707D0502034
:1048D00080F31188BFF34F8FBFF36F8FFEE72DB3C7
:1048E0007068854234D82248103001460C6801E0D7
:1048F00020460C466168A94202D221680029F7D1FE
:1049000031688C4224D007682168016060680837EC
:10491000411B10290FD96019420708D0502080F39D
:104920001188BFF34F8FBFF36F8FFEE710E0416038
:104930006560FFF74FFF61687068401A7060B26889
:10494000904200D2B060F06801430020C4E9000149
:1049500000F0B6FB780707D0502080F31188BFF332
:104960004F8FBFF36F8FFEE73846BDE8F081000040
:10497000B000002010B5031F4FF080741C601B1F97
:1049800021F001011960191F024B0B6014394038E6
:104990000A6010BD4148000870B50546FBF7E5FD0B
:1049A000044620F00040C0F1FF40C00F08D025F0C1
:1049B0000040C0F1FF40C00F04BF0120FFF750FBD3
:1049C000204670BD08B5002400F010FB0A4D009091
:1049D0000121684600F03AF9E0070BD1FEF70CFF21
:1049E0002846FEF7F3F905490548FEF71DFF044880
:1049F000FEF716FF641CEBE76F12033B84000020F8
:104A0000A80400200120FFF745FDFBE70120FFF788
:104A100041FDFBE7054C064D01260448FFF7A6FAC9
:104A200084F823602869FFF77DFDF6E73005002054
:104A300084000020FBF7EEFD0120FFF72BFDF9E7D6
:104A4000D0E9013201699A60D0E901235A604A68CD
:104A5000824201D182684A60002202610868401ED9
:104A60000860704700F108014FF0FF32C0E9011201
:104A7000C160016100210160704700210161704740
:104A800030B50B685A1C02D000F1080202E002693E
:104A900004E02246546825689D42FAD953684B6069
:104AA00099608A60516008610168491C016030BDED
:104AB00042684A6093688B609368596091600861AE
:104AC0000168491C01607047502080F31188BFF3D2
:104AD0004F8FBFF36F8F0A494868401C4860012818
:104AE0000CD10848006810F0FF0F07D0502080F369
:104AF0001188BFF34F8FBFF36F8FFEE77047000041
:104B0000C800002004ED00E00849486828B1401EB4
:104B1000486001D180F311887047502080F31188DC
:104B2000BFF34F8FBFF36F8FFEE70000C800002078
:104B300070B5002827D0144DA0F108046168E8681A
:104B4000014207D1502080F31188BFF34F8FBFF38C
:104B50006F8FFEE722683AB1502080F31188BFF3CF
:104B60004F8FBFF36F8FFEE78143616000F07EF9E6
:104B700060686968084468602046FFF72BFEBDE85E
:104B8000704000F09DBA70BDB000002006484FF4A0
:104B90007A710068B0FBF1F14FF0E020491E4161ED
:104BA0000721016170470000AC00002010B5FBF741
:104BB000EFFA114910280ED300F1E02090F8F0032D
:104BC0000A78904207D2502080F31188BFF34F8FAC
:104BD000BFF36F8FFEE709480068896800F4E06062
:104BE000884207D9502080F31188BFF34F8FBFF35D
:104BF0006F8FFEE710BD0000C80000200CED00E044
:104C000010B5020014D00F48006B38B1502080F36B
:104C10001188BFF34F8FBFF36F8FFEE700F026F9C7
:104C200000211046FFF784FC00F04AFA002807D163
:104C300005494FF080500860BFF34F8FBFF36F8F6F
:104C400010BD0000D400002004ED00E070B50D465A
:104C500004000BD095B11E4A106BB8B1502080F300
:104C60001188BFF34F8FBFF36F8FFEE7502080F3A3
:104C70001188BFF34F8FBFF36F8FFEE7502080F393
:104C80001188BFF34F8FBFF36F8FFEE700F0EEF890
:104C9000D26823685919934204D98B420AD99142A8
:104CA00002D807E08B42FAD9881A21600021FFF769
:104CB0003FFC00E0216000F003FA002807D105491D
:104CC0004FF080500860BFF34F8FBFF36F8F70BD00
:104CD000D400002004ED00E070B504002BD01A4D84
:104CE000286884422FD0FFF7EFFE2046FFF7BCFD77
:104CF000E8B1201DFFF7A4FEE06A01212A69814086
:104D000011432961114900EB800001EB8000211D56
:104D1000FFF7CEFEE06A2968C96A884207D30C49CA
:104D20004FF080500860BFF34F8FBFF36F8FBDE827
:104D30007040FFF7E9BE502080F31188BFF34F8F1A
:104D4000BFF36F8FFEE770BDD4000020582E002007
:104D500004ED00E01CB515480024CDE900402346D1
:104D6000402213A1144800F007F9012809D0401C83
:104D70001AD1502080F31188BFF34F8FBFF36F8F8C
:104D8000FEE7502080F31188BFF34F8FBFF36F8F82
:104D900006484FF0FF312C38816201214161C46027
:104DA000BDE81C4000F098B81CBD000000010020C8
:104DB00049444C45000000001D47000870B50446FA
:104DC000FFF782FE264D04B92C68201DFFF738FE40
:104DD00058B9E06A234A00EB800152F8211021B94A
:104DE00001218140286988432861A06A18B104F133
:104DF0001800FFF725FE1B48211DA030FFF758FEC5
:104E0000FFF782FE686928B1FFF75EFEFFF708FD35
:104E1000FFF77AFE2868844213D1686990B1286B45
:104E200038B1502080F31188BFF34F8FBFF36F8FDD
:104E3000FEE70D494FF080500860BFF34F8FBFF37E
:104E40006F8F70BD0748A968A0300068884202D102
:104E50000020286070BDBDE8704000F00FB8000071
:104E6000D4000020582E002004ED00E00248016B21
:104E7000491C016370470000D40000201448016BF6
:104E800011B10121C16170470021C1610169B1FA0D
:104E900081F1C1F11F0101EB81020E4951F822306D
:104EA0006BB101EB820101F108034A6852684A6064
:104EB0009A4201D152684A60D1680160704750201F
:104EC00080F31188BFF34F8FBFF36F8FFEE70000B1
:104ED000D4000020582E00201CB5194908780190F4
:104EE000FF20087008788DF800009DF80000154A32
:104EF00000F0500010700720906005E09DF8003031
:104F00005B008DF80030401E9DF800301B06F5D484
:104F1000000200F4E0609060019808700A4801689F
:104F200041F470010160016841F070410160FFF7D8
:104F30002DFE00205060FBF7F5F800201CBD00009E
:104F400000E400E0C800002020ED00E010B5502093
:104F500080F31188BFF34F8FBFF36F8F00F04CF8D1
:104F600018B104494FF080500860002080F3118888
:104F700010BD000004ED00E02DE9FF5F8346DDE990
:104F80000E87994616468A469000FFF787FC050073
:104F90001AD05420FFF782FC040012D025630021B0
:104FA000CDE90241CDE900874B463246514658468D
:104FB000FFF7C8FB2046FFF7F3FA012004B0BDE875
:104FC000F09F2846FFF7B4FD4FF0FF30F6E70000F2
:104FD0000548416919B1006B18B1002070470120E4
:104FE0007047022070470000D40000200148C068CC
:104FF00070470000D40000202DE9F0412E4C00271E
:10500000206B40B1A069401CA061E06900B101279C
:105010003846BDE8F081E668761CE66013D1606B27
:10502000006838B1502080F31188BFF34F8FBFF371
:105030006F8FFEE7606BA16B6163A063206A401C09
:105040002062FFF7EDFBA06ADFF87080864209D38B
:10505000606B006880B1606BC068C5686868864234
:105060000DD2A0622068C06A00EB800158F82100D0
:105070000128CAD90127C8E74FF0FF30F1E7281D02
:10508000FFF7DEFCA86A18B105F11800FFF7D8FC9D
:10509000E86A0121226981401143216100EB80010E
:1050A00008EB8100291DFFF703FDE86A2168C96A42
:1050B0008842CDD30127CBE7D4000020582E002012
:1050C0002DE9F0472C4D00242746286B38B1FFF717
:1050D000FBFC286B401E2863286B40B146E0502043
:1050E00080F31188BFF34F8FBFF36F8FFEE7A9687E
:1050F000224E0120D1B3A6F1780980463068E8B18C
:10510000F068C46804F11800FFF79AFC201DFFF74F
:1051100097FCE06A2A6908FA00F11143296100EB63
:10512000800109EB8100211DFFF7C2FCE06A2968BC
:10513000C96A8842E2D3C5F81C80DFE70CB1FFF7EB
:105140006FFBAC6944B14646FFF756FF00B1EE6114
:10515000641EF9D10020A861E86938B10849012727
:1051600038070860BFF34F8FBFF36F8FFFF7CCFC9A
:105170003846BDE8F0870000D4000020D02E002083
:1051800004ED00E02DE9F0410027040015D0FFF701
:105190000DFD5020EFF3118580F31188BFF34F8F81
:1051A000BFF36F8F2046FFF75FFB30B3154E306BB8
:1051B00058B104F1180114481DE0502080F3118803
:1051C000BFF34F8FBFF36F8FFEE7E06A3168C96AA4
:1051D000884200D30127201DFFF732FCE16A01203D
:1051E000326988401043306101EB8100064978390B
:1051F00001EB8000211DFFF75BFC85F31188384629
:10520000BDE8F081D4000020D02E0020D852000844
:1052100019380008000000000000000080000000B5
:105220009C520008C5490008000000000000000072
:1052300080000000A8520008054A0008FFFF000097
:105240000000000040000000B4520008154A0008A9
:10525000FFFF00000000000040000000C0520008F6
:105260000D4A0008FDFF00000000000040000000A3
:10527000CC520008354A0008FDFF00000000000085
:1052800040000000000000000000000001020304D4
:1052900006070809000000000102030453544142BC
:1052A000494C495A455200005553415254315F52BE
:1052B000580000005553415254325F5258000000CC
:1052C0005553415254315F545800000055534152D8
:1052D00054325F545800000064656661756C745404
:1052E00061736B00045300080000002014010000EB
:1052F000424000081854000814010020FC3100004E
:105300005240000800000000000000000000000003
:105310000000000000000000000080406F12833A8F
:10532000000000000000000000000000000000007D
:10533000000000000000000000000000000000006D
:10534000000000000000803F00000000000000009E
:10535000000000000000000000000000000000004D
:10536000000000000000000000000000000000003D
:10537000000000000000000000000000000000002D
:10538000000A0F14143200000000000000000000AA
:10539000000000000000000000000000000000000D
:1053A00000000000010000001000000000000000EC
:1053B00000A24A04000000000000000000000000FD
:1053C00000000000000000000000000000000000DD
:1053D000AAAAAAAA00000000000000000000000025
:1053E00000000000000000000000000000000000BD
:1053F00000000000000000000000000000000000AD
:10540000000000000000000000000000000000009C
:08541000000000000000000094
:04000005080000ED02
:00000001FF
